{
  "contractName": "COTCrowdsale",
  "abi": [
    {
      "constant": true,
      "inputs": [],
      "name": "rate",
      "outputs": [
        {
          "name": "",
          "type": "uint256"
        }
      ],
      "payable": false,
      "stateMutability": "view",
      "type": "function"
    },
    {
      "constant": true,
      "inputs": [],
      "name": "weiRaised",
      "outputs": [
        {
          "name": "",
          "type": "uint256"
        }
      ],
      "payable": false,
      "stateMutability": "view",
      "type": "function"
    },
    {
      "constant": true,
      "inputs": [],
      "name": "wallet",
      "outputs": [
        {
          "name": "",
          "type": "address"
        }
      ],
      "payable": false,
      "stateMutability": "view",
      "type": "function"
    },
    {
      "constant": false,
      "inputs": [],
      "name": "renounceOwnership",
      "outputs": [],
      "payable": false,
      "stateMutability": "nonpayable",
      "type": "function"
    },
    {
      "constant": true,
      "inputs": [],
      "name": "owner",
      "outputs": [
        {
          "name": "",
          "type": "address"
        }
      ],
      "payable": false,
      "stateMutability": "view",
      "type": "function"
    },
    {
      "constant": false,
      "inputs": [
        {
          "name": "_beneficiary",
          "type": "address"
        }
      ],
      "name": "buyTokens",
      "outputs": [],
      "payable": true,
      "stateMutability": "payable",
      "type": "function"
    },
    {
      "constant": false,
      "inputs": [
        {
          "name": "_newOwner",
          "type": "address"
        }
      ],
      "name": "transferOwnership",
      "outputs": [],
      "payable": false,
      "stateMutability": "nonpayable",
      "type": "function"
    },
    {
      "constant": true,
      "inputs": [],
      "name": "token",
      "outputs": [
        {
          "name": "",
          "type": "address"
        }
      ],
      "payable": false,
      "stateMutability": "view",
      "type": "function"
    },
    {
      "inputs": [
        {
          "name": "_rate",
          "type": "uint256"
        },
        {
          "name": "_wallet",
          "type": "address"
        },
        {
          "name": "_token",
          "type": "address"
        },
        {
          "name": "_DAOaddress",
          "type": "address"
        },
        {
          "name": "_limit",
          "type": "uint256"
        }
      ],
      "payable": false,
      "stateMutability": "nonpayable",
      "type": "constructor"
    },
    {
      "payable": true,
      "stateMutability": "payable",
      "type": "fallback"
    },
    {
      "anonymous": false,
      "inputs": [
        {
          "indexed": true,
          "name": "previousOwner",
          "type": "address"
        }
      ],
      "name": "OwnershipRenounced",
      "type": "event"
    },
    {
      "anonymous": false,
      "inputs": [
        {
          "indexed": true,
          "name": "previousOwner",
          "type": "address"
        },
        {
          "indexed": true,
          "name": "newOwner",
          "type": "address"
        }
      ],
      "name": "OwnershipTransferred",
      "type": "event"
    },
    {
      "anonymous": false,
      "inputs": [
        {
          "indexed": true,
          "name": "purchaser",
          "type": "address"
        },
        {
          "indexed": true,
          "name": "beneficiary",
          "type": "address"
        },
        {
          "indexed": false,
          "name": "value",
          "type": "uint256"
        },
        {
          "indexed": false,
          "name": "amount",
          "type": "uint256"
        }
      ],
      "name": "TokenPurchase",
      "type": "event"
    },
    {
      "constant": false,
      "inputs": [
        {
          "name": "_beneficiary",
          "type": "address"
        },
        {
          "name": "_tokenAmount",
          "type": "uint256"
        }
      ],
      "name": "MintLimit",
      "outputs": [],
      "payable": false,
      "stateMutability": "nonpayable",
      "type": "function"
    },
    {
      "constant": false,
      "inputs": [],
      "name": "transferTokenOwnerToDAO",
      "outputs": [],
      "payable": false,
      "stateMutability": "nonpayable",
      "type": "function"
    }
  ],
  "bytecode": "0x608060405234801561001057600080fd5b5060405160a0806108a883398101604090815281516020830151918301516060840151608090940151919390918484846000831161004d57600080fd5b600160a060020a038216151561006257600080fd5b600160a060020a038116151561007757600080fd5b60029290925560018054600160a060020a03928316600160a060020a03199182161790915560008054938316938216939093179092556004805483163317905560058054948216948316949094179093556006805494909316931692909217905560075550506107bc806100ec6000396000f3006080604052600436106100a35763ffffffff7c01000000000000000000000000000000000000000000000000000000006000350416632c4e722e81146100ae5780634042b66f146100d5578063521eb273146100ea578063715018a61461011b578063788d2556146101305780638da5cb5b14610154578063c75c7a3e14610169578063ec8ac4d81461017e578063f2fde38b14610192578063fc0c546a146101b3575b6100ac336101c8565b005b3480156100ba57600080fd5b506100c361026a565b60408051918252519081900360200190f35b3480156100e157600080fd5b506100c3610270565b3480156100f657600080fd5b506100ff610276565b60408051600160a060020a039092168252519081900360200190f35b34801561012757600080fd5b506100ac610285565b34801561013c57600080fd5b506100ac600160a060020a03600435166024356102f3565b34801561016057600080fd5b506100ff61050d565b34801561017557600080fd5b506100ac61051c565b6100ac600160a060020a03600435166101c8565b34801561019e57600080fd5b506100ac600160a060020a03600435166105b7565b3480156101bf57600080fd5b506100ff6105da565b3460006101d583836105e9565b6101de8261060a565b6003549091506101f4908363ffffffff61062716565b6003556102018382610634565b60408051838152602081018390528151600160a060020a0386169233927f623b3804fa71d67900d064613da8f94b9617215ee90799290593e1745087ad18929081900390910190a36102538383610509565b61025b61063e565b6102658383610509565b505050565b60025481565b60035481565b600154600160a060020a031681565b600454600160a060020a0316331461029c57600080fd5b600454604051600160a060020a03909116907ff8df31144d9c2f0f6b59d69b8b98abd5459d07f2742c4df920b25aae33c6482090600090a26004805473ffffffffffffffffffffffffffffffffffffffff19169055565b600454600160a060020a0316331461030a57600080fd5b600754600660009054906101000a9004600160a060020a0316600160a060020a03166318160ddd6040518163ffffffff167c0100000000000000000000000000000000000000000000000000000000028152600401602060405180830381600087803b15801561037957600080fd5b505af115801561038d573d6000803e3d6000fd5b505050506040513d60208110156103a357600080fd5b5051106103af57600080fd5b600754600654604080517f18160ddd000000000000000000000000000000000000000000000000000000008152905161044c92600160a060020a0316916318160ddd9160048083019260209291908290030181600087803b15801561041357600080fd5b505af1158015610427573d6000803e3d6000fd5b505050506040513d602081101561043d57600080fd5b5051839063ffffffff61062716565b1115610456575060005b6000811161046357600080fd5b600654604080517f40c10f19000000000000000000000000000000000000000000000000000000008152600160a060020a03858116600483015260248201859052915191909216916340c10f199160448083019260209291908290030181600087803b1580156104d257600080fd5b505af11580156104e6573d6000803e3d6000fd5b505050506040513d60208110156104fc57600080fd5b5051151561050957600080fd5b5050565b600454600160a060020a031681565b600454600160a060020a0316331461053357600080fd5b600654600554604080517ff2fde38b000000000000000000000000000000000000000000000000000000008152600160a060020a0392831660048201529051919092169163f2fde38b91602480830192600092919082900301818387803b15801561059d57600080fd5b505af11580156105b1573d6000803e3d6000fd5b50505050565b600454600160a060020a031633146105ce57600080fd5b6105d781610677565b50565b600054600160a060020a031681565b600160a060020a03821615156105fe57600080fd5b80151561050957600080fd5b6000610621600254836106f590919063ffffffff16565b92915050565b8181018281101561062157fe5b610509828261071e565b600154604051600160a060020a03909116903480156108fc02916000818181858888f193505050501580156105d7573d6000803e3d6000fd5b600160a060020a038116151561068c57600080fd5b600454604051600160a060020a038084169216907f8be0079c531659141344cd1fd0a4f28419497f9722a3daafe3b4186f6b6457e090600090a36004805473ffffffffffffffffffffffffffffffffffffffff1916600160a060020a0392909216919091179055565b600082151561070657506000610621565b5081810281838281151561071657fe5b041461062157fe5b60008054604080517f40c10f19000000000000000000000000000000000000000000000000000000008152600160a060020a03868116600483015260248201869052915191909216926340c10f1992604480820193602093909283900390910190829087803b1580156104d257600080fd00a165627a7a72305820982bb146760f7935cf2d2f4eafaa265eda718c380ad60d755afe5f16d30d96f60029",
  "source": "pragma solidity ^0.4.24;\r\n\r\nimport \"openzeppelin-solidity/contracts/crowdsale/Crowdsale.sol\";\r\nimport \"openzeppelin-solidity/contracts/crowdsale/emission/MintedCrowdsale.sol\";\r\nimport \"openzeppelin-solidity/contracts/ownership/Ownable.sol\";\r\n\r\n\r\ncontract COTCrowdsale is Crowdsale, MintedCrowdsale, Ownable{\r\n  address DAOaddress;\r\n  ERC20 private token;\r\n  uint256 private limit;\r\n\r\n  constructor(\r\n    uint256 _rate,\r\n    address _wallet,\r\n    ERC20 _token,\r\n    address _DAOaddress,\r\n    uint256 _limit\r\n  )\r\n  Crowdsale(_rate, _wallet, _token)\r\n  public\r\n  {\r\n    DAOaddress = _DAOaddress;\r\n    token = _token;\r\n    limit = _limit;\r\n  }\r\n\r\n  /*\r\n     Owner can mint new Tokens up to a certain limit\r\n  */\r\n  function MintLimit(\r\n    address _beneficiary,\r\n    uint256 _tokenAmount\r\n  )\r\n    public\r\n    onlyOwner()\r\n  {\r\n  require(token.totalSupply() < limit);\r\n\r\n  if(_tokenAmount.add(token.totalSupply()) > limit ){\r\n     _tokenAmount = 0;\r\n  }\r\n  require(_tokenAmount > 0);\r\n  require(MintableToken(address(token)).mint(_beneficiary, _tokenAmount));\r\n  }\r\n\r\n  /*\r\n     Owner can transfer token owner permissions\r\n     to DAO contract\r\n  */\r\n\r\n  function transferTokenOwnerToDAO()\r\n    public\r\n    onlyOwner()\r\n  {\r\n    MintableToken(address(token)).transferOwnership(DAOaddress);\r\n  }\r\n\r\n}\r\n",
  "sourcePath": "C:\\Users\\Ruslan\\Desktop\\COT-Tokens-DAO3L\\contracts\\COTCrowdsale.sol",
  "compiler": {
    "name": "solc",
    "version": "0.4.24+commit.e67f0147.Emscripten.clang"
  },
  "schemaVersion": "2.0.1",
  "updatedAt": "2018-10-15T10:44:21.700Z"
}