{
  "contractName": "COTDAO",
  "abi": [
    {
      "constant": false,
      "inputs": [],
      "name": "renounceOwnership",
      "outputs": [],
      "payable": false,
      "stateMutability": "nonpayable",
      "type": "function"
    },
    {
      "constant": true,
      "inputs": [],
      "name": "owner",
      "outputs": [
        {
          "name": "",
          "type": "address"
        }
      ],
      "payable": false,
      "stateMutability": "view",
      "type": "function"
    },
    {
      "constant": false,
      "inputs": [
        {
          "name": "_newOwner",
          "type": "address"
        }
      ],
      "name": "transferOwnership",
      "outputs": [],
      "payable": false,
      "stateMutability": "nonpayable",
      "type": "function"
    },
    {
      "inputs": [
        {
          "name": "_token",
          "type": "address"
        },
        {
          "name": "_limit",
          "type": "uint256"
        },
        {
          "name": "_openingTime",
          "type": "uint256"
        }
      ],
      "payable": false,
      "stateMutability": "nonpayable",
      "type": "constructor"
    },
    {
      "anonymous": false,
      "inputs": [
        {
          "indexed": true,
          "name": "previousOwner",
          "type": "address"
        }
      ],
      "name": "OwnershipRenounced",
      "type": "event"
    },
    {
      "anonymous": false,
      "inputs": [
        {
          "indexed": true,
          "name": "previousOwner",
          "type": "address"
        },
        {
          "indexed": true,
          "name": "newOwner",
          "type": "address"
        }
      ],
      "name": "OwnershipTransferred",
      "type": "event"
    },
    {
      "constant": false,
      "inputs": [
        {
          "name": "_beneficiary",
          "type": "address"
        },
        {
          "name": "_tokenAmount",
          "type": "uint256"
        }
      ],
      "name": "MintLimit",
      "outputs": [],
      "payable": false,
      "stateMutability": "nonpayable",
      "type": "function"
    },
    {
      "constant": false,
      "inputs": [
        {
          "name": "_beneficiary",
          "type": "address"
        }
      ],
      "name": "MintPercent",
      "outputs": [],
      "payable": false,
      "stateMutability": "nonpayable",
      "type": "function"
    },
    {
      "constant": false,
      "inputs": [
        {
          "name": "_newOwner",
          "type": "address"
        }
      ],
      "name": "ChangeOwnerDAO",
      "outputs": [],
      "payable": false,
      "stateMutability": "nonpayable",
      "type": "function"
    },
    {
      "constant": false,
      "inputs": [],
      "name": "pauseDAO",
      "outputs": [],
      "payable": false,
      "stateMutability": "nonpayable",
      "type": "function"
    },
    {
      "constant": false,
      "inputs": [],
      "name": "unpauseDAO",
      "outputs": [],
      "payable": false,
      "stateMutability": "nonpayable",
      "type": "function"
    },
    {
      "constant": false,
      "inputs": [],
      "name": "finishMint",
      "outputs": [],
      "payable": false,
      "stateMutability": "nonpayable",
      "type": "function"
    }
  ],
  "bytecode": "0x608060405234801561001057600080fd5b5060405160608061098783398101604090815281516020830151919092015160008054600160a060020a03191633179055600160a060020a038316151561005657600080fd5b60018054600160a060020a031916600160a060020a0394909416939093179092556002556003556108fb8061008c6000396000f30060806040526004361061007f5763ffffffff60e060020a6000350416634b6e4a478114610084578063715018a6146100a7578063788d2556146100bc5780638da5cb5b146100e05780639612a76614610111578063992f419014610126578063b38435cc14610147578063e4cc18be1461015c578063f2fde38b14610171575b600080fd5b34801561009057600080fd5b506100a5600160a060020a0360043516610192565b005b3480156100b357600080fd5b506100a56102ca565b3480156100c857600080fd5b506100a5600160a060020a0360043516602435610336565b3480156100ec57600080fd5b506100f5610537565b60408051600160a060020a039092168252519081900360200190f35b34801561011d57600080fd5b506100a5610546565b34801561013257600080fd5b506100a5600160a060020a03600435166105ca565b34801561015357600080fd5b506100a5610715565b34801561016857600080fd5b506100a561077f565b34801561017d57600080fd5b506100a5600160a060020a0360043516610813565b6102226002600160009054906101000a9004600160a060020a0316600160a060020a03166318160ddd6040518163ffffffff1660e060020a028152600401602060405180830381600087803b1580156101ea57600080fd5b505af11580156101fe573d6000803e3d6000fd5b505050506040513d602081101561021457600080fd5b50519063ffffffff61082a16565b600154604080517f70a082310000000000000000000000000000000000000000000000000000000081523360048201529051600160a060020a03909216916370a08231916024808201926020929091908290030181600087803b15801561028857600080fd5b505af115801561029c573d6000803e3d6000fd5b505050506040513d60208110156102b257600080fd5b5051116102be57600080fd5b6102c78161083f565b50565b600054600160a060020a031633146102e157600080fd5b60008054604051600160a060020a03909116917ff8df31144d9c2f0f6b59d69b8b98abd5459d07f2742c4df920b25aae33c6482091a26000805473ffffffffffffffffffffffffffffffffffffffff19169055565b600054600160a060020a0316331461034d57600080fd5b600254600160009054906101000a9004600160a060020a0316600160a060020a03166318160ddd6040518163ffffffff1660e060020a028152600401602060405180830381600087803b1580156103a357600080fd5b505af11580156103b7573d6000803e3d6000fd5b505050506040513d60208110156103cd57600080fd5b5051106103d957600080fd5b600254600154604080517f18160ddd000000000000000000000000000000000000000000000000000000008152905161047692600160a060020a0316916318160ddd9160048083019260209291908290030181600087803b15801561043d57600080fd5b505af1158015610451573d6000803e3d6000fd5b505050506040513d602081101561046757600080fd5b5051839063ffffffff6108bc16565b1115610480575060005b6000811161048d57600080fd5b600154604080517f40c10f19000000000000000000000000000000000000000000000000000000008152600160a060020a03858116600483015260248201859052915191909216916340c10f199160448083019260209291908290030181600087803b1580156104fc57600080fd5b505af1158015610510573d6000803e3d6000fd5b505050506040513d602081101561052657600080fd5b5051151561053357600080fd5b5050565b600054600160a060020a031681565b600054600160a060020a0316331461055d57600080fd5b600160009054906101000a9004600160a060020a0316600160a060020a0316633f4ba83a6040518163ffffffff1660e060020a028152600401600060405180830381600087803b1580156105b057600080fd5b505af11580156105c4573d6000803e3d6000fd5b50505050565b600054600160a060020a031633146105e157600080fd5b6003544210156105f057600080fd5b600154604080517f18160ddd0000000000000000000000000000000000000000000000000000000081529051600160a060020a03909216916340c10f1991849161067391600a916106679160649188916318160ddd9160048083019260209291908290030181600087803b1580156101ea57600080fd5b9063ffffffff61082a16565b6040518363ffffffff1660e060020a0281526004018083600160a060020a0316600160a060020a0316815260200182815260200192505050602060405180830381600087803b1580156106c557600080fd5b505af11580156106d9573d6000803e3d6000fd5b505050506040513d60208110156106ef57600080fd5b505115156106fc57600080fd5b61070f4262093a8063ffffffff6108bc16565b60035550565b600054600160a060020a0316331461072c57600080fd5b600160009054906101000a9004600160a060020a0316600160a060020a0316638456cb596040518163ffffffff1660e060020a028152600401600060405180830381600087803b1580156105b057600080fd5b600054600160a060020a0316331461079657600080fd5b600160009054906101000a9004600160a060020a0316600160a060020a0316637d64bcb46040518163ffffffff1660e060020a028152600401602060405180830381600087803b1580156107e957600080fd5b505af11580156107fd573d6000803e3d6000fd5b505050506040513d602081101561053357600080fd5b600054600160a060020a031633146102be57600080fd5b6000818381151561083757fe5b049392505050565b600160a060020a038116151561085457600080fd5b60008054604051600160a060020a03808516939216917f8be0079c531659141344cd1fd0a4f28419497f9722a3daafe3b4186f6b6457e091a36000805473ffffffffffffffffffffffffffffffffffffffff1916600160a060020a0392909216919091179055565b818101828110156108c957fe5b929150505600a165627a7a72305820e7ce3b91bd9cd6a5735d4ddc1e92cdb108149f36ee51abaf010f5a44f84078e50029",
  "source": "pragma solidity ^0.4.24;\r\n\r\nimport \"openzeppelin-solidity/contracts/token/ERC20/MintableToken.sol\";\r\nimport \"openzeppelin-solidity/contracts/ownership/Ownable.sol\";\r\nimport \"openzeppelin-solidity/contracts/math/SafeMath.sol\";\r\nimport \"openzeppelin-solidity/contracts/token/ERC20/PausableToken.sol\";\r\n\r\ncontract COTDAO is Ownable{\r\n  using SafeMath for uint256;\r\n\r\n  ERC20 private token;\r\n  uint256 private limit;\r\n  uint256 private openingTime;\r\n\r\n  constructor(\r\n    ERC20 _token,\r\n    uint256 _limit,\r\n    uint256 _openingTime\r\n    )\r\n    public {\r\n    require(_token != address(0));\r\n    token = _token;\r\n    limit = _limit;\r\n    openingTime = _openingTime;\r\n  }\r\n\r\n  modifier onlyWhenOpen {\r\n    require(block.timestamp >= openingTime);\r\n    _;\r\n  }\r\n\r\n /*\r\n    Owner can mint new Tokens up to a certain limit\r\n */\r\n  function MintLimit(\r\n    address _beneficiary,\r\n    uint256 _tokenAmount\r\n  )\r\n    public\r\n    onlyOwner()\r\n  {\r\n  require(token.totalSupply() < limit);\r\n\r\n  if(_tokenAmount.add(token.totalSupply()) > limit ){\r\n    _tokenAmount = 0;\r\n  }\r\n  require(_tokenAmount > 0);\r\n  require(MintableToken(address(token)).mint(_beneficiary, _tokenAmount));\r\n  }\r\n\r\n  /*\r\n    Owner can mint 0.01% from totalSuply per week\r\n  */\r\n\r\n  function MintPercent(\r\n    address _beneficiary\r\n  )\r\n    public\r\n    onlyOwner()\r\n    onlyWhenOpen()\r\n  {\r\n  require(MintableToken(address(token)).mint(_beneficiary, token.totalSupply().div(100).div(10)));\r\n  openingTime = now.add(7 days);\r\n  }\r\n\r\n  /*\r\n   address with 51% balance can change Owner DAO\r\n  */\r\n\r\n  function ChangeOwnerDAO(\r\n    address _newOwner\r\n  )\r\n    public\r\n  {\r\n  require(token.balanceOf(msg.sender) > token.totalSupply().div(2));\r\n  super._transferOwnership(_newOwner);\r\n  }\r\n\r\n  /*\r\n    owner DAO can pause Token\r\n    only through contract DAO\r\n  */\r\n\r\n  function pauseDAO()\r\n    public\r\n    onlyOwner()\r\n  {\r\n    PausableToken(address(token)).pause();\r\n  }\r\n\r\n  /*\r\n    owner DAO can unpause Token\r\n    only through contract DAO\r\n  */\r\n\r\n  function unpauseDAO()\r\n    public\r\n    onlyOwner()\r\n  {\r\n    PausableToken(address(token)).unpause();\r\n  }\r\n\r\n  /*\r\n     owner DAO can finish mint\r\n  */\r\n\r\n  function finishMint()\r\n    public\r\n    onlyOwner()\r\n  {\r\n    MintableToken(address(token)).finishMinting();\r\n  }\r\n}\r\n",
  "sourcePath": "C:\\Users\\Ruslan\\Desktop\\COT-Tokens-DAO3L\\contracts\\COTDAO.sol",
  "compiler": {
    "name": "solc",
    "version": "0.4.24+commit.e67f0147.Emscripten.clang"
  },
  "schemaVersion": "2.0.1",
  "updatedAt": "2018-10-15T10:44:21.698Z"
}