{
  "contractName": "MintNewTokens",
  "abi": [
    {
      "constant": false,
      "inputs": [],
      "name": "renounceOwnership",
      "outputs": [],
      "payable": false,
      "stateMutability": "nonpayable",
      "type": "function"
    },
    {
      "constant": true,
      "inputs": [],
      "name": "owner",
      "outputs": [
        {
          "name": "",
          "type": "address"
        }
      ],
      "payable": false,
      "stateMutability": "view",
      "type": "function"
    },
    {
      "constant": false,
      "inputs": [
        {
          "name": "_newOwner",
          "type": "address"
        }
      ],
      "name": "transferOwnership",
      "outputs": [],
      "payable": false,
      "stateMutability": "nonpayable",
      "type": "function"
    },
    {
      "inputs": [
        {
          "name": "_token",
          "type": "address"
        },
        {
          "name": "_totalSupplyHalf",
          "type": "uint256"
        },
        {
          "name": "_limit",
          "type": "uint256"
        },
        {
          "name": "_openingTime",
          "type": "uint256"
        }
      ],
      "payable": false,
      "stateMutability": "nonpayable",
      "type": "constructor"
    },
    {
      "anonymous": false,
      "inputs": [
        {
          "indexed": true,
          "name": "previousOwner",
          "type": "address"
        }
      ],
      "name": "OwnershipRenounced",
      "type": "event"
    },
    {
      "anonymous": false,
      "inputs": [
        {
          "indexed": true,
          "name": "previousOwner",
          "type": "address"
        },
        {
          "indexed": true,
          "name": "newOwner",
          "type": "address"
        }
      ],
      "name": "OwnershipTransferred",
      "type": "event"
    },
    {
      "constant": false,
      "inputs": [
        {
          "name": "_beneficiary",
          "type": "address"
        },
        {
          "name": "_tokenAmount",
          "type": "uint256"
        }
      ],
      "name": "MintLimit",
      "outputs": [],
      "payable": false,
      "stateMutability": "nonpayable",
      "type": "function"
    },
    {
      "constant": false,
      "inputs": [
        {
          "name": "_beneficiary",
          "type": "address"
        }
      ],
      "name": "MintPercent",
      "outputs": [],
      "payable": false,
      "stateMutability": "nonpayable",
      "type": "function"
    },
    {
      "constant": false,
      "inputs": [
        {
          "name": "_newOwner",
          "type": "address"
        }
      ],
      "name": "ChangeOwnerDAO",
      "outputs": [],
      "payable": false,
      "stateMutability": "nonpayable",
      "type": "function"
    }
  ],
  "bytecode": "0x608060405234801561001057600080fd5b50604051608080610781833981016040908152815160208301519183015160609093015160008054600160a060020a03191633179055909290600160a060020a038416151561005e57600080fd5b60018054600160a060020a031916600160a060020a0395909516949094179093556002919091556003556004556106e78061009a6000396000f30060806040526004361061005e5763ffffffff60e060020a6000350416634b6e4a478114610063578063715018a614610086578063788d25561461009b5780638da5cb5b146100bf578063992f4190146100f0578063f2fde38b14610111575b600080fd5b34801561006f57600080fd5b50610084600160a060020a0360043516610132565b005b34801561009257600080fd5b506100846101dd565b3480156100a757600080fd5b50610084600160a060020a0360043516602435610249565b3480156100cb57600080fd5b506100d461044a565b60408051600160a060020a039092168252519081900360200190f35b3480156100fc57600080fd5b50610084600160a060020a0360043516610459565b34801561011d57600080fd5b50610084600160a060020a03600435166105d6565b600254600154604080517f70a082310000000000000000000000000000000000000000000000000000000081523360048201529051600160a060020a03909216916370a08231916024808201926020929091908290030181600087803b15801561019b57600080fd5b505af11580156101af573d6000803e3d6000fd5b505050506040513d60208110156101c557600080fd5b5051116101d157600080fd5b6101da816105ed565b50565b600054600160a060020a031633146101f457600080fd5b60008054604051600160a060020a03909116917ff8df31144d9c2f0f6b59d69b8b98abd5459d07f2742c4df920b25aae33c6482091a26000805473ffffffffffffffffffffffffffffffffffffffff19169055565b600054600160a060020a0316331461026057600080fd5b600354600160009054906101000a9004600160a060020a0316600160a060020a03166318160ddd6040518163ffffffff1660e060020a028152600401602060405180830381600087803b1580156102b657600080fd5b505af11580156102ca573d6000803e3d6000fd5b505050506040513d60208110156102e057600080fd5b5051106102ec57600080fd5b600354600154604080517f18160ddd000000000000000000000000000000000000000000000000000000008152905161038992600160a060020a0316916318160ddd9160048083019260209291908290030181600087803b15801561035057600080fd5b505af1158015610364573d6000803e3d6000fd5b505050506040513d602081101561037a57600080fd5b5051839063ffffffff61066a16565b1115610393575060005b600081116103a057600080fd5b600154604080517f40c10f19000000000000000000000000000000000000000000000000000000008152600160a060020a03858116600483015260248201859052915191909216916340c10f199160448083019260209291908290030181600087803b15801561040f57600080fd5b505af1158015610423573d6000803e3d6000fd5b505050506040513d602081101561043957600080fd5b5051151561044657600080fd5b5050565b600054600160a060020a031681565b600054600160a060020a0316331461047057600080fd5b60045442101561047f57600080fd5b61049042601e63ffffffff61066a16565b6004908155600154604080517f18160ddd0000000000000000000000000000000000000000000000000000000081529051600160a060020a03909216926340c10f1992859261054d926005926105419260649289926318160ddd9280830192602092918290030181600087803b15801561050957600080fd5b505af115801561051d573d6000803e3d6000fd5b505050506040513d602081101561053357600080fd5b50519063ffffffff61067d16565b9063ffffffff61069216565b6040518363ffffffff1660e060020a0281526004018083600160a060020a0316600160a060020a0316815260200182815260200192505050602060405180830381600087803b15801561059f57600080fd5b505af11580156105b3573d6000803e3d6000fd5b505050506040513d60208110156105c957600080fd5b505115156101da57600080fd5b600054600160a060020a031633146101d157600080fd5b600160a060020a038116151561060257600080fd5b60008054604051600160a060020a03808516939216917f8be0079c531659141344cd1fd0a4f28419497f9722a3daafe3b4186f6b6457e091a36000805473ffffffffffffffffffffffffffffffffffffffff1916600160a060020a0392909216919091179055565b8181018281101561067757fe5b92915050565b6000818381151561068a57fe5b049392505050565b60008215156106a357506000610677565b508181028183828115156106b357fe5b041461067757fe00a165627a7a723058201f9b620c3a878398201b25df01c3feab12d9a143ecdda090bb992383c1ae74520029",
  "source": "pragma solidity ^0.4.24;\r\n\r\nimport \"openzeppelin-solidity/contracts/token/ERC20/ERC20.sol\";\r\nimport \"openzeppelin-solidity/contracts/token/ERC20/MintableToken.sol\";\r\nimport \"openzeppelin-solidity/contracts/token/ERC20/SafeERC20.sol\";\r\nimport \"openzeppelin-solidity/contracts/ownership/Ownable.sol\";\r\nimport \"openzeppelin-solidity/contracts/math/SafeMath.sol\";\r\n\r\ncontract MintNewTokens is Ownable{\r\n  using SafeERC20 for ERC20;\r\n  using SafeMath for uint256;\r\n\r\n  ERC20 private token;\r\n  uint256 private totalSupplyHalf;\r\n  uint256 private limit;\r\n  uint256 private openingTime;\r\n\r\n  constructor(\r\n    ERC20 _token,\r\n    uint256 _totalSupplyHalf,\r\n    uint256 _limit,\r\n    uint256 _openingTime\r\n    )\r\n    public {\r\n    require(_token != address(0));\r\n    token = _token;\r\n    totalSupplyHalf = _totalSupplyHalf;\r\n    limit = _limit;\r\n    openingTime = _openingTime;\r\n  }\r\n\r\n  modifier onlyWhenOpen {\r\n    require(block.timestamp >= openingTime);\r\n    _;\r\n  }\r\n\r\n /*\r\n    Owner can mint new Tokens up to a certain limit\r\n    Limit set in migrations\r\n */\r\n  function MintLimit(\r\n    address _beneficiary,\r\n    uint256 _tokenAmount\r\n  )\r\n    public\r\n  onlyOwner()\r\n  {\r\n  require(token.totalSupply() < limit);\r\n\r\n  if(_tokenAmount.add(token.totalSupply()) > limit ){\r\n    _tokenAmount = 0;\r\n  }\r\n  require(_tokenAmount > 0);\r\n  // Potentially dangerous assumption about the type of the token.\r\n  require(MintableToken(address(token)).mint(_beneficiary, _tokenAmount));\r\n  }\r\n\r\n  /*\r\n    Owner can mint 5% from totalSuply once a year (5 minute for test)\r\n  */\r\n  function MintPercent(\r\n    address _beneficiary\r\n  )\r\n    public\r\n    onlyOwner()\r\n    onlyWhenOpen()\r\n  {\r\n  // Update time\r\n  openingTime = now.add(30 seconds);\r\n\r\n  // Potentially dangerous assumption about the type of the token.\r\n  require(MintableToken(address(token)).mint(_beneficiary, token.totalSupply().div(100).mul(5)));\r\n  }\r\n\r\n\r\n  function ChangeOwnerDAO(\r\n    address _newOwner\r\n  )\r\n    public\r\n  {\r\n  require(token.balanceOf(msg.sender) > totalSupplyHalf);\r\n  super._transferOwnership(_newOwner);\r\n  }\r\n\r\n  /*\r\n  Pool address with 51% balance can call mint function\r\n  require(pool_address > totalSupply / 2)\r\n  */\r\n\r\n  /* function MintForPoolAddress(\r\n    address _beneficiary,\r\n    uint256 _tokenAmount\r\n  )\r\n    public\r\n  {\r\n  require(token.balanceOf(msg.sender) > totalSupplyHalf);\r\n    // Potentially dangerous assumption about the type of the token.\r\n  require(MintableToken(address(token)).mint(_beneficiary, _tokenAmount));\r\n  } */\r\n}\r\n",
  "sourcePath": "C:\\Users\\Ruslan\\Desktop\\WORK\\COT-Tokens-DAO3L\\contracts\\MintNewTokens.sol",
  "compiler": {
    "name": "solc",
    "version": "0.4.24+commit.e67f0147.Emscripten.clang"
  },
  "schemaVersion": "2.0.1",
  "updatedAt": "2018-10-06T08:06:04.113Z"
}