{
  "contractName": "MintNewTokens",
  "abi": [
    {
      "constant": false,
      "inputs": [],
      "name": "renounceOwnership",
      "outputs": [],
      "payable": false,
      "stateMutability": "nonpayable",
      "type": "function"
    },
    {
      "constant": true,
      "inputs": [],
      "name": "owner",
      "outputs": [
        {
          "name": "",
          "type": "address"
        }
      ],
      "payable": false,
      "stateMutability": "view",
      "type": "function"
    },
    {
      "constant": false,
      "inputs": [
        {
          "name": "_newOwner",
          "type": "address"
        }
      ],
      "name": "transferOwnership",
      "outputs": [],
      "payable": false,
      "stateMutability": "nonpayable",
      "type": "function"
    },
    {
      "inputs": [
        {
          "name": "_token",
          "type": "address"
        },
        {
          "name": "_limit",
          "type": "uint256"
        },
        {
          "name": "_openingTime",
          "type": "uint256"
        }
      ],
      "payable": false,
      "stateMutability": "nonpayable",
      "type": "constructor"
    },
    {
      "anonymous": false,
      "inputs": [
        {
          "indexed": true,
          "name": "previousOwner",
          "type": "address"
        }
      ],
      "name": "OwnershipRenounced",
      "type": "event"
    },
    {
      "anonymous": false,
      "inputs": [
        {
          "indexed": true,
          "name": "previousOwner",
          "type": "address"
        },
        {
          "indexed": true,
          "name": "newOwner",
          "type": "address"
        }
      ],
      "name": "OwnershipTransferred",
      "type": "event"
    },
    {
      "constant": false,
      "inputs": [
        {
          "name": "_beneficiary",
          "type": "address"
        },
        {
          "name": "_tokenAmount",
          "type": "uint256"
        }
      ],
      "name": "MintLimit",
      "outputs": [],
      "payable": false,
      "stateMutability": "nonpayable",
      "type": "function"
    },
    {
      "constant": false,
      "inputs": [
        {
          "name": "_beneficiary",
          "type": "address"
        }
      ],
      "name": "MintPercent",
      "outputs": [],
      "payable": false,
      "stateMutability": "nonpayable",
      "type": "function"
    },
    {
      "constant": false,
      "inputs": [
        {
          "name": "_newOwner",
          "type": "address"
        }
      ],
      "name": "ChangeOwnerDAO",
      "outputs": [],
      "payable": false,
      "stateMutability": "nonpayable",
      "type": "function"
    }
  ],
  "bytecode": "0x608060405234801561001057600080fd5b506040516060806107a583398101604090815281516020830151919092015160008054600160a060020a03191633179055600160a060020a038316151561005657600080fd5b60018054600160a060020a031916600160a060020a0394909416939093179092556002556003556107198061008c6000396000f30060806040526004361061005e5763ffffffff60e060020a6000350416634b6e4a478114610063578063715018a614610086578063788d25561461009b5780638da5cb5b146100bf578063992f4190146100f0578063f2fde38b14610111575b600080fd5b34801561006f57600080fd5b50610084600160a060020a0360043516610132565b005b34801561009257600080fd5b5061008461026a565b3480156100a757600080fd5b50610084600160a060020a03600435166024356102d6565b3480156100cb57600080fd5b506100d46104d7565b60408051600160a060020a039092168252519081900360200190f35b3480156100fc57600080fd5b50610084600160a060020a03600435166104e6565b34801561011d57600080fd5b50610084600160a060020a0360043516610631565b6101c26002600160009054906101000a9004600160a060020a0316600160a060020a03166318160ddd6040518163ffffffff1660e060020a028152600401602060405180830381600087803b15801561018a57600080fd5b505af115801561019e573d6000803e3d6000fd5b505050506040513d60208110156101b457600080fd5b50519063ffffffff61064816565b600154604080517f70a082310000000000000000000000000000000000000000000000000000000081523360048201529051600160a060020a03909216916370a08231916024808201926020929091908290030181600087803b15801561022857600080fd5b505af115801561023c573d6000803e3d6000fd5b505050506040513d602081101561025257600080fd5b50511161025e57600080fd5b6102678161065d565b50565b600054600160a060020a0316331461028157600080fd5b60008054604051600160a060020a03909116917ff8df31144d9c2f0f6b59d69b8b98abd5459d07f2742c4df920b25aae33c6482091a26000805473ffffffffffffffffffffffffffffffffffffffff19169055565b600054600160a060020a031633146102ed57600080fd5b600254600160009054906101000a9004600160a060020a0316600160a060020a03166318160ddd6040518163ffffffff1660e060020a028152600401602060405180830381600087803b15801561034357600080fd5b505af1158015610357573d6000803e3d6000fd5b505050506040513d602081101561036d57600080fd5b50511061037957600080fd5b600254600154604080517f18160ddd000000000000000000000000000000000000000000000000000000008152905161041692600160a060020a0316916318160ddd9160048083019260209291908290030181600087803b1580156103dd57600080fd5b505af11580156103f1573d6000803e3d6000fd5b505050506040513d602081101561040757600080fd5b5051839063ffffffff6106da16565b1115610420575060005b6000811161042d57600080fd5b600154604080517f40c10f19000000000000000000000000000000000000000000000000000000008152600160a060020a03858116600483015260248201859052915191909216916340c10f199160448083019260209291908290030181600087803b15801561049c57600080fd5b505af11580156104b0573d6000803e3d6000fd5b505050506040513d60208110156104c657600080fd5b505115156104d357600080fd5b5050565b600054600160a060020a031681565b600054600160a060020a031633146104fd57600080fd5b60035442101561050c57600080fd5b600154604080517f18160ddd0000000000000000000000000000000000000000000000000000000081529051600160a060020a03909216916340c10f1991849161058f91600a916105839160649188916318160ddd9160048083019260209291908290030181600087803b15801561018a57600080fd5b9063ffffffff61064816565b6040518363ffffffff1660e060020a0281526004018083600160a060020a0316600160a060020a0316815260200182815260200192505050602060405180830381600087803b1580156105e157600080fd5b505af11580156105f5573d6000803e3d6000fd5b505050506040513d602081101561060b57600080fd5b5051151561061857600080fd5b61062b4262093a8063ffffffff6106da16565b60035550565b600054600160a060020a0316331461025e57600080fd5b6000818381151561065557fe5b049392505050565b600160a060020a038116151561067257600080fd5b60008054604051600160a060020a03808516939216917f8be0079c531659141344cd1fd0a4f28419497f9722a3daafe3b4186f6b6457e091a36000805473ffffffffffffffffffffffffffffffffffffffff1916600160a060020a0392909216919091179055565b818101828110156106e757fe5b929150505600a165627a7a723058206c71597d53ae8b89ff0f98906f6ff0e01426255cc2565baee19a625447555fa30029",
  "source": "pragma solidity ^0.4.24;\r\nimport \"openzeppelin-solidity/contracts/token/ERC20/MintableToken.sol\";\r\nimport \"openzeppelin-solidity/contracts/ownership/Ownable.sol\";\r\nimport \"openzeppelin-solidity/contracts/math/SafeMath.sol\";\r\n\r\ncontract MintNewTokens is Ownable{\r\n  using SafeMath for uint256;\r\n\r\n  MintableToken private token;\r\n  uint256 private limit;\r\n  uint256 private openingTime;\r\n\r\n  constructor(\r\n    MintableToken _token,\r\n    uint256 _limit,\r\n    uint256 _openingTime\r\n    )\r\n    public {\r\n    require(_token != address(0));\r\n    token = _token;\r\n    limit = _limit;\r\n    openingTime = _openingTime;\r\n  }\r\n\r\n  modifier onlyWhenOpen {\r\n    require(block.timestamp >= openingTime);\r\n    _;\r\n  }\r\n\r\n /*\r\n    Owner can mint new Tokens up to a certain limit\r\n    Limit set in migrations\r\n */\r\n  function MintLimit(\r\n    address _beneficiary,\r\n    uint256 _tokenAmount\r\n  )\r\n    public\r\n    onlyOwner()\r\n  {\r\n  require(token.totalSupply() < limit);\r\n\r\n  if(_tokenAmount.add(token.totalSupply()) > limit ){\r\n    _tokenAmount = 0;\r\n  }\r\n  require(_tokenAmount > 0);\r\n  require(token.mint(_beneficiary, _tokenAmount));\r\n  }\r\n\r\n  /*\r\n    Owner can mint 5% from totalSuply once a year\r\n  */\r\n  function MintPercent(\r\n    address _beneficiary\r\n  )\r\n    public\r\n    onlyOwner()\r\n    onlyWhenOpen()\r\n  {\r\n  require(token.mint(_beneficiary, token.totalSupply().div(100).div(10)));\r\n  // Update time\r\n  openingTime = now.add(7 days);\r\n  }\r\n\r\n\r\n  function ChangeOwnerDAO(\r\n    address _newOwner\r\n  )\r\n    public\r\n  {\r\n  require(token.balanceOf(msg.sender) > token.totalSupply().div(2));\r\n  super._transferOwnership(_newOwner);\r\n  }\r\n}\r\n",
  "sourcePath": "C:\\Users\\Ruslan\\Desktop\\COT-Tokens-DAO3L\\contracts\\MintNewTokens.sol",
  "compiler": {
    "name": "solc",
    "version": "0.4.24+commit.e67f0147.Emscripten.clang"
  },
  "schemaVersion": "2.0.1",
  "updatedAt": "2018-10-10T12:56:52.806Z"
}